:020000002628B0
:100008007E14803120007F08F1008B1A0B1D2228F6
:100018000B110130F0007008FB007B08031922283F
:10002800FB017A0803191E28FA010130F000700854
:10003800B80022280130F0007008FA077108FF00A4
:100048007E1009002728FA01FB012000B8017E1064
:1000580020002E28F0302100990023008C01210077
:100068009D0118308C0020008C0124008C01873001
:1000780021009500A0308B002000B001B101B10A29
:10008800B601B603B2013C30A7002708AF00B7019C
:10009800B301B30AB401340803196628B401370858
:1000A800031D5828B301B30A0E3037060319B301EC
:1000B8003308031964280130A7002708B707662802
:1000C8000130B70238080319BA28B8013708A70061
:1000D800A8012708F2002808F3000530F4000030D2
:1000E800F50039227208F33E2000A900FF30733D65
:1000F800AA00A909AA09A90A0319AA0A2F082907FF
:10010800AB002A0803182A0AAC002C08803A803C65
:10011800031D90282B083202031CB5282000B201C9
:100128003608803A773E031CA828B401B40A0D307B
:100138002000A8002D30A700D730890BA128A70BD5
:10014800A128A80BA128003220003608803A773E63
:10015800031CB028B601BA280130A7002708B60743
:10016800BA2801302000A7002708B207B5013608D1
:10017800803AA7003508803AA702031C4F283508A3
:10018800A700A801A71BA8032718CC28B001CE28D0
:10019800B001B00A09303606031DD428B101D628AB
:1001A800B101B10A3008A7002708F8003108A800F3
:1001B8002808F9003708A900AA012908F2002A0826
:1001C800F3000930F4000030F5003922B230200085
:1001D800AB008130AC0072082B07AD0073082C3DD2
:1001E800AE0035082D0784002E0803182E0A850056
:1001F80000080D2106302000A7003030890B0229A5
:10020800A70B0229000001302000A7002708B50726
:10021800BB282000A60079080319AD297808031D1A
:100228005D290130A0002608FF3EA100FF30031819
:100238000030A2005430210784008230223D85001E
:100248000008890A2829A035890B27290130A3002D
:100258002608FF3EA400FF3003180030A5005E30DA
:10026800240784008230253D85000008890A3D293D
:10027800A335890B3C2923082004FF3A21008C0070
:1002880001302000A0002608FF3EA100FF3003181F
:100298000030A2005E30210784008230223D8500B4
:1002A8000008890A5829A035890B572920088C008D
:1002B80008007803031DA8290130A0002608FF3E86
:1002C800A100FF3003180030A20054302107840039
:1002D8008230223D85000008890A7329A035890BE0
:1002E80072290130A3002608FF3EA400FF3003183E
:1002F8000030A5005E30240784008230253D85004B
:100308000008890A8829A335890B8729230820042E
:10031800FF3A21008C0001302000A0002608FF3E93
:10032800A100FF3003180030A200543021078400D8
:100338008230223D85000008890AA329A035890B4F
:10034800A22920088C00080021008C0120008C01C3
:10035800080021008C0120008C01080005340934B4
:1003680003340734083402340634043401340534C1
:1003780009340134073408340234043406340334AD
:10038800053407340134093408340234063404349B
:10039800033405340934013407340834023406348C
:1003A8000434033405340334093401340234083482
:1003B8000734043406340534093401340734083466
:1003C800023403340434063405340934033407345E
:1003D8000834023401340634043405340334073451
:1003E800013402340834093406340434053403343F
:1003F800093401340234083406340434073405342B
:10040800073403340934083402340634043401341C
:10041800053407340334093408340234013406340B
:1004280004340534013407340334023408340934FD
:1004380004340634053403340734013402340834F0
:1004480009340634043405340934033407340834D1
:1004580002340634043401340534013409340334D5
:1004680002340834063404340734F601F701721CE8
:10047800412A7408F6077508F73D0130F435F50D83
:10048800890B422A0130F336F20C890B472A72088D
:100498007304031D3B2A7708F3007608F20008006E
:1004A8000034023401340234003404340134013499
:1004B8000034003401340434023405340234053481
:0804C80004340534043400344F
:020000040001F9
:04000E00A4FFFFDF6D
:00000001FF
