:020000002628B0
:100008007E14803120007F08F1008B1A0B1D2228F6
:100018000B110130F0007008FB007B08031922283F
:10002800FB017A0803191E28FA010130F000700854
:10003800A90022280130F0007008FA077108FF00B3
:100048007E1009002728FA01FB012000A9017E1073
:100058002000D3282000A00073080319CE287208B6
:10006800031D7E280130F4002008FF3EF500FF3014
:1000780003180030F6004530750784008130763D5E
:1000880085000008890A4928F435890B4828013079
:10009800F7002008FF3EF800FF3003180030F90091
:1000A8004F30780784008130793D85000008890A3F
:1000B8005E28F735890B5D2877087404FF3A21001C
:1000C8008C000130F40020002008FF3EF500FF30CE
:1000D80003180030F6004F30750784008130763DF4
:1000E80085000008890A7928F435890B782874086E
:1000F8008C0008007203031DC9280130F400200891
:10010800FF3EF500FF3003180030F6004530750754
:1001180084008130763D85000008890A9428F435EA
:10012800890B93280130F7002008FF3EF800FF30C4
:1001380003180030F9004F30780784008130793D8A
:1001480085000008890AA928F735890BA8287708A7
:100158007404FF3A21008C000130F40020002008CC
:10016800FF3EF500FF3003180030F60045307507F4
:1001780084008130763D85000008890AC428F4355A
:10018800890BC32874088C00080021008C0120000A
:100198008C01080021008C0120008C010800F0303F
:1001A8002100990023008C0121009D0118308C004A
:1001B80020008C0124008C01873021009500A0309C
:1001C8008B002000A401A501A50AA801A803A60187
:1001D8003C30A1002108A300290803190929A90115
:1001E80023082602031C0529A6012808803A773E21
:1001F800031C0029A80109290130A1002108A8072A
:1002080009290130A1002108A607A7012808803A7A
:10021800A1002708803AA102031CF0282708A100A2
:10022800A201A11BA20321181B29A4011D29A401B5
:10023800A40A09302806031D2329A5012529A5019B
:10024800A50A2408A1002108F2002508A200220816
:10025800F3002708593E840081300318013E8500C9
:1002680000082E2006302000A1003030890B3A29E2
:10027800A10B3A29000001302000A1002108A7079E
:100288000A290034023401340234003404340134BD
:1002980001340034003401340434023405340234A7
:1002A8000534043405340434003405340934033483
:0C02B800073408340234063404340134E6
:020000040001F9
:04000E00A4FFFFDF6D
:00000001FF
