:020000002628B0
:100008007E14803120007F08F1008B1A0B1D2228F6
:100018000B110130F0007008FB007B08031922283F
:10002800FB017A0803191E28FA010130F000700854
:10003800BA0022280130F0007008FA077108FF00A2
:100048007E1009002728FA01FB012000BA017E1062
:1000580020002E28F0302100990023008C01210077
:100068009D0118308C0020008C0124008C01873001
:1000780021009500A0308B002000B001B101B10A29
:10008800B801B803B2013C30A7002708AF00B90196
:10009800B301B30AB401B50102303502031883284D
:1000A8000930A7002708B60036080319752835084F
:1000B800A7002708F800F901F90A36084121053098
:1000C8002000A8000F30A700F130890B6928A70B82
:1000D8006928A80B692801302000B6023608031DDC
:1000E8005B28F801F901F90A0A30412101302000A2
:1000F800A7002708B50702303502031C5428340826
:1001080003199A28B4013908031D8C28B301B30ACE
:100118000E3039060319B301330803199828013042
:10012800A7002708B9079A280130B9023A08031925
:10013800EE28BA013908A700A8012708F200280804
:10014800F3000530F4000030F5006D227208F33E2C
:100158002000A900FF30733DAA00A909AA09A90A2D
:100168000319AA0A2F082907AB002A0803182A0A24
:10017800AC002C08803A803C031DC4282B083202AE
:10018800031CE9282000B2013808803A773E031C96
:10019800DC28B401B40A0D302000A8002D30A700D7
:1001A800D730890BD528A70BD528A80BD52800321E
:1001B80020003808803A773E031CE428B801EE286E
:1001C8000130A7002708B807EE2801302000A70053
:1001D8002708B207B7013808803AA7003708803ADD
:1001E800A702031C83283708A700A801A71BA80398
:1001F80027180029B0010229B001B00A09303806D1
:10020800031D0829B1010A29B101B10A3008A70064
:100218002708F8003108A8002808F9003908A900BB
:10022800AA012908F2002A08F3000930F400003076
:10023800F5006D22E6302000AB008130AC0072087A
:100248002B07AD0073082C3DAE0037082D0784003E
:100258002E0803182E0A85000008412106302000C8
:10026800A7003030890B3629A70B3629000001304A
:100278002000A7002708B707EF282000A600790864
:100288000319E1297808031D91290130A0002608E7
:10029800FF3EA100FF3003180030A200883021077C
:1002A80084008230223D85000008890A5C29A03537
:1002B800890B5B290130A3002608FF3EA400FF300C
:1002C80003180030A5009230240784008230253DB1
:1002D80085000008890A7129A335890B702923082C
:1002E8002004FF3A21008C0001302000A0002608DD
:1002F800FF3EA100FF3003180030A2009230210712
:1003080084008230223D85000008890A8C29A035A6
:10031800890B8B2920088C0008007803031DDC2931
:100328000130A0002608FF3EA100FF30031800306E
:10033800A2008830210784008230223D8500000811
:10034800890AA729A035890BA6290130A300260808
:10035800FF3EA400FF3003180030A50092302407A8
:1003680084008230253D85000008890ABC29A33510
:10037800890BBB2923082004FF3A21008C00013097
:100388002000A0002608FF3EA100FF30031800301F
:10039800A2008830210784008230223D85000008B1
:1003A800890AD729A035890BD62920088C0008008E
:1003B80021008C0120008C01080021008C01200004
:1003C8008C01080005340934033407340834023436
:1003D800063404340134053409340134073408344C
:1003E8000234043406340334053407340134093440
:1003F800083402340634043403340534093401342F
:10040800073408340234063404340334053403341E
:10041800093401340234083407340434063405340A
:1004280009340134073408340234033404340634FC
:1004380005340934033407340834023401340634EB
:1004480004340534033407340134023408340934DD
:1004580006340434053403340934013402340834CE
:1004680006340434073405340734033409340834B3
:1004780002340634043401340534073403340934AF
:1004880008340234013406340434053401340734A2
:10049800033402340834093404340634053403348C
:1004A800073401340234083409340634043405347A
:1004B800093403340734083402340634043401346C
:1004C800053401340934033402340834063404345E
:1004D8000734F601F701721C752A7408F6077508C7
:1004E800F73D0130F435F50D890B762A0130F336E6
:1004F800F20C890B7B2A72087304031D6F2A770894
:10050800F3007608F20008000034023401340234A3
:100518000034043401340134003400340134043428
:100528000234053402340534043405340434003408
:020000040001F9
:04000E00A4FFFFDF6D
:00000001FF
